:0600000002009B02040354
:03000B0002040BE1
:03001300020413D1
:03001B0002041BC1
:03002300020423B1
:03002B0002042BA1
:0300330002043391
:03003B0002043B81
:0300430002044371
:03004B0002044B61
:0300530002045351
:03005B0002045B41
:0300630002046331
:03006B0002046B21
:0300730002047311
:03007B0002047B01
:03008300020483F1
:03008B0002048BE1
:03009300020493D1
:08009B007581641200A380FED0
:2000A300120295E5EFF56130E10375610212F800E58224FF92007562007FFF2082020562F8
:2000C3008F06EE14FF70F4D296E56120E61930001674382562401012F89B90FBFEE493F5F3
:2000E300C475C3011204001200EF80FBD29612030DAF82C296BF21028017BF22028012BFAE
:200103002302800DBF26028008BF29028003BF310FC00712030DAE82D007BE2002800122DC
:20012300BF2100500122EF24CE500122EF24DFFE240A83F582EE241583F583E47362657845
:2001430084A7D1E8487E8484848484847F82010101010101010201020202020202020202BD
:20016300028575824312030390FBFEE493F58212030302028512F83602028512F85C020258
:200183008512030DAE828E6375640012030DAE828E05E44263ED426412030DAE82BE200387
:2001A3000202852212030DAF82C00712030DAE82D007BE200280012285638285648305638D
:2001C300E4B5630205648F0812F86C0202858563828564830563E4B56302056412F89612C8
:2001E300030302028512030DE582FE24BF5001227D00C3ED9E5019ED2421F9C006C005C0E6
:200203000112030DE582D001D005D006F70D80E2C00612030DAD82D006BD20697D00C3ED0F
:200223009E505F8563828564830563E4B563020564ED2421F98708C006C00512F86CD00539
:20024300D0060D80D912030DAE82C00612030DAD82D006BD202F7D00C3ED9E50258563826A
:200263008564830563E4B563020564C006C00512F896120303D005D0060D80DC43EF108027
:20028300012202028922758212120303758210020303C2AFAFD974BF5FF5D975B64075B26E
:2002A3008F75A900758840758920758E08758D9675981275FF807E5E7F011EBEFF011FEE38
:2002C3004F70F775EF0675A41075A70F75A41075A70075E10143D4CF43D578E5D675D6FF90
:2002E30075A70F43A5F543A5F543A62043A62075A700740F55E44407F5E4C28875E3402204
:20F8000090F7FEE493FFBF3D0B90F7FFE493FFBFC20280047F0080027F018F8222AE82AF50
:20F820008374FC2F500574082F5002C322D32275B7A575B7F1227E007FF4C007C00612F8E2
:20F840002FD006D007758F038E828F8374FFF0758F00EF24FCFFC3940450DF2212F82F75D4
:20F860008F0790000074FFF0758F0022AE82AF83C007C00612F81DD006D0075018C007C027
:20F880000612F82FD006D007758F018E828F83E508F0758F0022E493F582227F007E008EB7
:20F8A000047D0074DE2CF58274F73DF583C007C00612F896AD82D006D007BDFF0280012248
:20F8C0000EBE1F0040D990F7FDC00712F896AE82D007BEFF4D7E00EE90FBDE93FD62070E4C
:20F8E000BE1F0040F290FBFDE493FEEFB506337F008F057E0074DE2DFD74F73EFEEF90FBF1
:20F90000DE93F5088D828E83C00712F86CD0070FBF1F0040DC90FBFDE493F50890F7FD02BA
:03F92000F86C225E
:01FBFE009175
:13030300AF8210990280FB8F992210980280FB859982225F
:00000001FF

